:020000040800F2
:10000000104500200100100829261008490010089A
:10001000FF200008C1030008ED32100800000000B6
:10002000000000000000000000000000FD2A100891
:100030007D0400080000000003210008A12400083E
:100040001B0010081B0010081B0010081B001008E4
:100050001B0010081B0010081B0010081B001008D4
:100060001B0010081B0010081B0010081B001008C4
:100070001B0010081B0010081B0010081B001008B4
:100080001B0010081B0010081B0010081B001008A4
:10009000C50110081B001008890400081B00100887
:1000A0001B0010081B0010081B0010081B00100884
:1000B000952B10081B0010081B0010081B001008CF
:1000C0001B0010081B0010081B0010081B00100864
:1000D0001B001008E13300081B0010083D30100819
:1000E0001B0010081B001008000000001B00100877
:1000F0001B0010081B0010081B0010081B00100834
:100100001B001008212400081B0010081B00100809
:100110001B0010081B0010081B0010081B00100813
:100120001B0010081B0010081B0010081B00100803
:100130001B0010081B0010081B001008D501100838
:1001400000000000000000000000000000000000AF
:100150001B0010081B0010081B0010081B001008D3
:100160001B0010081B0010081B0010081B001008C3
:100170001B0010081B0010081B00100800000000E6
:100180001B0010081B0010081B0010081B001008A3
:100190001B0010081B0010081B0010081B00100893
:1001A0001B0010081B0010081B0010081B00100883
:1001B0001B0010081B0010081B0010081B00100873
:1001C0001B0010081B0010081B0010081B00100863
:1001D0001B0010081B0010081B0010081B00100853
:1001E0001B0010081B0010081B0010081B00100843
:1001F0001B0010081B0010081B0010081B00100833
:100200001B0010081B0010081B0010081B00100822
:100210001B0010081B0010081B0010081B00100812
:100220001B0010081B0010081B0010080000000035
:100230001B0010081B001008000000001B00100825
:100240001B0010081B0010081B0010081B001008E2
:100250001B0010081B0010081B0010081B001008D2
:100260001B0010081B0010081B0010081B001008C2
:100270001B0010081B0010081B00100800000000E5
:100280001B0010081B0010081B00100800000000D5
:10029000000000001B001008DFF80CD000F076F81A
:1002A000004800478F4B1008104500202DE9F05FF3
:1002B0000546002092469B468846064681464024D5
:1002C0001BE0284641464746224600F04FF8534679
:1002D0005A46C01A914110D311461846224600F0E2
:1002E00016F82D1A67EB01084F462246012000211F
:1002F00000F00DF817EB00094E41201EA4F1010497
:10030000DFDC484631462A464346BDE8F09F202AB6
:1003100004DB203A00FA02F1002070479140C2F15C
:10032000200320FA03F319439040704710B5431A95
:10033000934209D28318881803E010F8011D03F8CE
:10034000011D521EF9D210BD40EA01039B0703D0E4
:1003500009E008C9121F08C0042AFAD203E011F804
:10036000013B00F8013B521EF9D210BD202A04DBEC
:10037000203A21FA02F00021704721FA02F3D0401E
:10038000C2F120029140084319467047064C074DC0
:1003900006E0E06840F0010394E807009847103455
:1003A000AC42F6D3FFF77CFF784D0008984D00086B
:1003B000704700000120014908607047EC000020F0
:1003C00000BFFEE710B500BF2A48006800F4003007
:1003D00000B115E0BFF34F8FBFF36F8F00202649A8
:1003E0000860BFF34F8FBFF36F8F2248006840F45F
:1003F000003020490860BFF34F8FBFF36F8F00BFFD
:1004000000BF1C4B1B6803F4803303B130E00023B2
:10041000184C70342360BFF34F8F231F1868C0F34C
:100420004E3100BFC0F3C90200BF43F6E07303EAD8
:1004300041134FF0404404EA827423430E4C1034BD
:10044000236000BF00BF131EA2F10102EDD10B1EFD
:10045000A1F10101E6D1BFF34F8F064B1B6843F4B6
:100460008033044C2360BFF34F8FBFF36F8F00BF07
:1004700010BD000014ED00E050EF00E0704701B93E
:10048000704700BFFEE7000010B5024800F1DAF93E
:1004900010BD0000E02100202DE9F0410546144682
:1004A0001E46D1F804C0BCF1000F0AD1D1F810C02B
:1004B000D1F808804CEA080CB1F800804CEA884377
:1004C0000BE0D1F810C04CF0804CD1F808804CEA19
:1004D000080CD1F800804CEA080391F82080D1F88C
:1004E0001CC04CEA086CD1F818804CEA080CD1F812
:1004F00014804CEA080CD1F80C804CEA0807D5F8B7
:1005000068C00CFB06FCD5F8848008EB8C021360F5
:10051000121D1760121D002019E000F1030C14F8E1
:100520000CC04FEA0C6800F1020C14F80CC048EA49
:100530000C4800F1010C14F80CC048EA0C2C14F81B
:1005400000804CEA080CC2F800C0121D001DDFF844
:100550001880D1F80CC008EB1C4C9CF800C08445F6
:10056000DBD8BDE8F0810000EC4C100870B5044603
:10057000B3F5804F13D1D1E9000540EA05108D682D
:1005800040EA05208D6928438D8940EA054054F8EA
:100590002250064E3540284344F8220003E06FF015
:1005A000704044F82200002070BD00000000F0CF31
:1005B0000348006840F001000149086070470000EE
:1005C00020040058704710B5034601B900E000BF91
:1005D00093F89800012824D151B91868D0F8F00098
:1005E00020F07C5040EA02601C68C4F8F00016E07D
:1005F00001290AD11868D0F8A00020F0FE4040EA96
:1006000002601C68C4F8A00009E01868D0F8B000C7
:1006100020F0FE4040EA02601C68C4F8B0000020F0
:1006200010BDD3F89C0040F00400C3F89C000120EA
:10063000F6E770B50446049D94F8980001280AD1A5
:10064000080140EA820040EA430028432668C6F8D1
:100650008000002070BDD4F89C0040F00400C4F875
:100660009C000120F6E7704710B5B6B00446BC21E7
:1006700002A8FFF0DEFC3E48844277D100BF3D482F
:10068000006840F002003B4908600846006800F03E
:100690000200019000BF00BF00BF0846006840F0A4
:1006A000020008600846006800F00200019000BFE8
:1006B00000BF4FF4004002900520039050210491A8
:1006C00002210591142106910221079180210891B0
:1006D000002109910A914FF000501D9002A800F1ED
:1006E0002BFE18B1AD2124A0FFF7C9FE00BF2148A1
:1006F0000C30006840F480701E490C3108600846D8
:10070000006800F48070019000BF00BF4FF40050FB
:100710003190022032900120339002203490092041
:10072000359031A91C4800F05BF84FF480503190AF
:100730000920359031A9184800F052F80022022112
:10074000142000F18FFC00220221162000F18AFC07
:10075000002202213F2000F185FC142000F087F9DF
:10076000162000F084F93F2000F081F936B010BD6A
:10077000E0210020E04402582E2E5C2E2E5C5573A2
:1007800065725C6273705C7372635C6273705F63EA
:10079000616E2E63000000000004025870470000E4
:1007A000044A904205D101F0020212B10122024B2B
:1007B0001A707047E0210020F60000207047704753
:1007C00070477047704700000349884202D10121F9
:1007D000024A117070470000E0210020F50000205F
:1007E000F8B502460023734DDEE001279F400E68F6
:1007F00006EA0704002C71D04E68012E08D04E681E
:10080000022E05D04E68112E02D04E68122E13D142
:1008100090685F000326BE40B0435F00CE68BE40D4
:1008200030439060506801269E40B0430E79C6F375
:1008300000169E4030435060D0685F000326BE40E3
:10084000B0435F008E68BE403043D0604E68022ED9
:1008500002D04E68122E13D1DF0802F1200656F89E
:1008600027005E07F70E0F26BE40B0435F07FF0E5E
:100870000E69BE403043DF0802F1200646F827002B
:1008800010685F000326BE40B0430E7906F00306F1
:100890005F00BE40304310604E6806F08056B6F1EF
:1008A000805F1BD100BF444E366846F00206424FBF
:1008B0003E603E46366806F00206009600BF00BF66
:1008C0003E4E9F0856F827009E07370F0F26BE4062
:1008D000B0433B4EB24202D100262EE063E0394ED7
:1008E000B24201D1012628E0374EB24201D10226A0
:1008F00023E0364EB24201D103261EE0344EB2420E
:1009000001D1042619E0334EB24201D1052614E08C
:10091000314EB24201D106260FE0304EB24201D133
:1009200007260AE02E4EB24201D1082605E02D4EE0
:10093000B24201D1092600E00A269F073F0FBE40C0
:1009400030431E4E9F0846F827002868A0434E6893
:1009500006F48036B6F5803F00D1204328606868F1
:10096000A0434E6806F40036B6F5003F00D12043A0
:1009700068604FF0B0463068A0434E6806F48016B9
:10098000B6F5801F00D120434FF0B046306070684C
:10099000A0434E6806F40016B6F5001F00D12043B0
:1009A0004FF0B04670605B1C0E68DE40002E7FF496
:1009B0001CAFF8BD80000058F444025808040058E9
:1009C000000002580004025800080258000C0258A7
:1009D000001002580014025800180258001C025857
:1009E00000200258002402580148006870470000A7
:1009F000CC00002070B504461148007808B90120E9
:100A000070BD0F4800784FF47A71B1FBF0F00D49DA
:100A10000968B1FBF0F5284601F1A7FA08B10120F9
:100A2000EEE7102C07D200222146501E00F11AFBDF
:100A30000548046001E00120E2E70020E0E7000053
:100A4000D4000020D8000020D0000020BFF35F8F2A
:100A50000548006820F480300349086000200249FE
:100A6000703108607047000024ED00E070470146D7
:100A7000084600280DDB00BF00BF00F01F03012265
:100A80009A4043099B0003F1E023C3F8002100BF13
:100A900000BF00BF7047000010B501F1EDF9054936
:100AA0000968C1F30211044A515C01F01F01C840FA
:100AB00010BD000020440258484D100870B5014692
:100AC000844D2D6805F00303824D2D68C5F3053074
:100AD000804D2D1D2D68C5F300147E4D14352D68F5
:100AE000C5F3CC0515FB04F501EE105AB8EE411A1A
:100AF000F0EE410A00286FD023B1012B4ED0022B1B
:100B00006BD16BE0734D283D2D68C5F340153DB3A7
:100B1000704D283D2D68C5F3C1066F4D25FA06F2CC
:100B200001EE102AF8EE411A01EE100AB8EE411A51
:100B300081EE812A9FED691AC0EE811A654D10354C
:100B40002D68C5F3080501EE105AB8EE411A31EED2
:100B5000811AF7EE001A31EE211A22EE010A1CE08A
:100B600001EE100AB8EE411ADFED5D1A81EE812A1E
:100B70009FED5A1AC0EE811A564D10352D68C5F3F7
:100B8000080501EE105AB8EE411A31EE811AF7EE5F
:100B9000001A31EE211A22EE010A5BE001EE100A82
:100BA000B8EE411ADFED4F1A81EE812A9FED4B1A04
:100BB000C0EE811A474D10352D68C5F3080501EECA
:100BC000105AB8EE411A31EE811AF7EE001A31EEE2
:100BD000211A22EE010A3DE077E01DE001EE100A45
:100BE000B8EE411A9FED402AC2EE011A9FED3B1A62
:100BF00080EE812A374D10352D68C5F3080501EECA
:100C0000105AB8EE411A32EE011AB7EE002A31EE50
:100C1000021A21EE810A1DE001EE100AB8EE411A17
:100C2000DFED301A81EE812A9FED2C1AC0EE811A79
:100C3000284D10352D68C5F3080501EE105AB8EEA1
:100C4000411A31EE811AF7EE001A31EE211A22EE26
:100C5000010A00BF00BF1F4D10352D68C5F34625A2
:100C600001EE105AB8EE411AF7EE001A31EE211AD1
:100C7000C0EE011ABCEEE11A81ED001A154D1035D7
:100C80002D68C5F3064501EE105AB8EE411AF7EE8D
:100C9000001A31EE211AC0EE011ABCEEE11A81ED04
:100CA000011A0C4D10352D68C5F3066501EE105A7A
:100CB000B8EE411AF7EE001A31EE211AC0EE011A11
:100CC000BCEEE11A81ED021A03E000250D604D60D3
:100CD0008D6070BD284402580090D003000000468B
:100CE0000024744C0024744A20BCBE4B2DE9F04112
:100CF00004460D4614B90120BDE8F081BD480068E6
:100D000000F00F00A8420ED2BA48006820F00F0091
:100D10002843B84908600846006800F00F00A84260
:100D200001D00120E8E7207800F0040004280ED16B
:100D3000B1492069096801F07001884207D9AE48BD
:100D4000006820F0700021690843AB4908602078F2
:100D500000F00800082811D1A749091D6069096839
:100D600001F07001884209D9A348001D006820F0F5
:100D7000700061690843A049091D0860207800F0EF
:100D80001000102811D19C49091DA069096801F4BF
:100D9000E061884209D99848001D006820F4E060AD
:100DA000A16908439449091D0860207800F02000DB
:100DB000202811D190490831E069096801F07001DB
:100DC000884209D98C480830006820F07000E16939
:100DD0000843894908310860207800F002000228A1
:100DE0000ED18549E068096801F00F01884207D9F2
:100DF0008148006820F00F00E16808437E490860E0
:100E0000207800F00100002850D07B48006820F4D2
:100E10007060A1680843784908606068022807D1BB
:100E2000754818380068C0F34040F8B9012063E7FE
:100E30006068032807D1704818380068C0F3406024
:100E4000A0B9012058E76068012807D16A4818381E
:100E50000068C0F3002048B901204DE76648183803
:100E60000068C0F3800008B9012045E762480838EF
:100E7000006820F00700616808435F49083908608E
:100E8000FFF7B2FD064608E0FFF7AEFD801B41F21A
:100E90008831884201D903202EE757480838006876
:100EA00000F038006168B0EBC10FEDD1207800F0A0
:100EB000020002280ED15049E068096801F00F01D4
:100EC000884207D24C48006820F00F00E1680843D0
:100ED000494908604748006800F00F00A8420ED951
:100EE0004448006820F00F00284342490860084643
:100EF000006800F00F00A84201D00120FCE6207835
:100F000000F0040004280ED13B492069096801F073
:100F10007001884207D23848006820F070002169CB
:100F2000084335490860207800F00800082811D1EE
:100F30003149091D6069096801F07001884209D2D0
:100F40002D48001D006820F07000616908432A499F
:100F5000091D0860207800F01000102811D12649E2
:100F6000091DA069096801F4E061884209D222489C
:100F7000001D006820F4E060A16908431E49091DB6
:100F80000860207800F02000202811D11A4908318B
:100F9000E069096801F07001884209D216480830FA
:100FA000006820F07000E1690843134908310860C7
:100FB00000F03EF810490968C1F303210F4A515C63
:100FC00001F01F0120FA01F70B48006800F00F0044
:100FD0001146085C00F01F0027FA00F0084908607D
:100FE0000848076008480068FFF704FD804640464F
:100FF00082E600000020005218440258484D1008B4
:10100000DC000020D8000020D000002000B500F156
:1010100033FF05490968C1F30211044A515C01F02C
:101020001F01C84000BD00001C440258484D100874
:10103000F0B5824E366806F0380636B1082E15D067
:10104000102E15D0182E7DD114E07C4E103E36683F
:10105000C6F3401646B1794E103E3668C6F3C10756
:10106000774E26FA07F000E07548E5E07548E3E0C2
:101070007548E1E0714E1836366806F003046F4E8D
:1010800018363668C6F305116C4E1C36366806F005
:1010900001056A4E24363668C6F3CC0616FB05F603
:1010A00001EE106AB8EE410A002971D024B1012C7A
:1010B00050D0022C6DD16DE0604E103E3668C6F304
:1010C00040163EB35D4E103E3668C6F3C1075C4E17
:1010D00026FA07F301EE103AF8EE411A01EE101A63
:1010E000B8EE411A81EE812A9FED581AC0EE011A1E
:1010F000524E20363668C6F3080601EE106AB8EE86
:10110000411A31EE811AF7EE001A31EE211A62EE21
:10111000010A1EE001EE101AB8EE411ADFED4C1A7A
:1011200081EE812A9FED491AC0EE011A434E203606
:101130003668C6F3080601EE106AB8EE411A31EEC1
:10114000811A00E076E0F7EE001A31EE211A62EE25
:10115000010A5BE001EE101AB8EE411A9FED3D2A3C
:10116000C2EE011A9FED391A80EE012A334E203665
:101170003668C6F3080601EE106AB8EE411A32EE80
:10118000011AB7EE002A31EE021A61EE810A3DE043
:101190004EE01DE001EE101AB8EE411ADFED2E1AF6
:1011A00081EE812A9FED291AC0EE011A234E2036C6
:1011B0003668C6F3080601EE106AB8EE411A31EE41
:1011C000811AF7EE001A31EE211A62EE010A1DE0D3
:1011D00001EE101AB8EE411A9FED1E2AC2EE011A56
:1011E0009FED1A1A80EE012A144E20363668C6F397
:1011F000080601EE106AB8EE411A32EE011AB7EE97
:10120000002A31EE021A61EE810A00BF00BF0B4EC8
:1012100020363668C6F34626721C01EE102AB8EE58
:10122000411AC0EE811ABCEEE11A11EE100A00E07C
:10123000002001E0034800BF00BFF0BD1044025889
:101240000090D00300093D0040787D010000004679
:101250000024744C0024744A20BCBE4B2DE9F04796
:10126000044614B90120BDE8F087207800F00100A1
:10127000002872D0F748006800F03808F5481830A8
:10128000D0F80090B8F1100F06D0B8F1180F0FD1B8
:1012900009F0030002280BD1EE4810380068C0F3B3
:1012A000404000286ED0606800286BD10120DAE74A
:1012B00000BF6068B0F5803F08D1E648103800688C
:1012C00040F48030E349103908602EE0606868B966
:1012D000E0481038006820F48030DE49103908609A
:1012E0000846006820F4802008601EE06068B0F5C1
:1012F000A02F0DD1D7481038006840F48020D54980
:10130000103908600846006840F4803008600CE03E
:10131000D0481038006820F48030CE491039086079
:101320000846006820F48020086000BF6068A8B10B
:10133000FFF75AFB054608E0FFF756FB401B41F25A
:101340008831884201D903208DE7C24810380068EF
:10135000C0F340400028EFD014E014E0FFF744FB56
:10136000054608E0FFF740FB401B41F28831884208
:1013700001D9032077E7B74810380068C0F3404030
:101380000028EFD100BF207800F0020002287BD1B6
:10139000B048006800F03808AE481830D0F8009027
:1013A000B8F1000F05D0B8F1180F3AD109F00300D9
:1013B000B0BBA84810380068C0F3800018B1E068DE
:1013C00008B901204FE700BFFFF0C8FD41F203015B
:1013D000884219D8206940280AD19E480C380068F4
:1013E00020F47C3040F400309A490C39086016E053
:1013F00098480C38006820F47C30216940EA0130BC
:1014000094490C3908600AE092480C38006820F0D2
:10141000FE40217C40EA01608E490C39086067E09B
:10142000FFE7E06888B38B481038006820F01900A7
:10143000E1680843874910390860FFF7D5FA054687
:1014400006E0FFF7D1FA401B022801D903200AE782
:10145000804810380068C0F380000028F1D000BF39
:10146000FFF07CFD41F2030188421BD8206940282F
:101470000CD178480C38006820F47C3040F40030FF
:1014800074490C39086018E033E017E071480C38F3
:10149000006820F47C30216940EA01306D490C3944
:1014A00008600AE06B480C38006820F0FE40217CA0
:1014B00040EA016067490C39086019E06548103856
:1014C000006820F00100634910390860FFF78CFACA
:1014D000054606E0FFF788FA401B022801D90320E1
:1014E000C1E65C4810380068C0F380000028F1D1E4
:1014F00000BF207800F0100010287CD1554800680B
:1015000000F0380853481830D0F80090B8F1080FB0
:1015100006D0B8F1180F3DD109F00300012839D1E8
:101520004C4810380068C0F3002020B1E0698028E2
:1015300001D0012097E600BFFFF010FD41F203014A
:1015400088421AD8206A20280AD142480C380068FC
:1015500020F0F84040F080403E490C39086018E027
:101560003C480C38006820F0F84094F8201040EA1D
:10157000816038490C3908600BE03648001F00686C
:1015800020F07C5094F8201040EA01603149091F96
:10159000086067E0E06978B32E481038006840F0D2
:1015A00080002C4910390860FFF71EFA054606E056
:1015B000FFF71AFA401B022801D9032053E62548F9
:1015C00010380068C0F300200028F1D000BFFFF001
:1015D000C5FC41F2030188421CD8206A20280CD1A6
:1015E0001C480C38006820F0F84040F08040194951
:1015F0000C3908601AE036E019E016480C3800682B
:1016000020F0F84094F8201040EA816011490C392C
:1016100008600BE00F48001F006820F07C5094F831
:10162000201040EA01600B49091F08601AE00948D0
:101630001038006820F08000064910390860FFF774
:10164000D3F9054608E0FFF7CFF9401B022803D97C
:10165000032008E610440258F3480068C0F3002055
:101660000028F0D100BF207800F00800082836D10B
:101670006069D0B1EC487430006840F00100EA497C
:1016800074310860FFF7B0F9054606E0FFF7ACF9E2
:10169000401B022801D90320E5E5E34874300068C7
:1016A000C0F340000028F1D019E0DF487430006832
:1016B00020F00100DC4974310860FFF795F9054618
:1016C00006E0FFF791F9401B022801D90320CAE583
:1016D000D54874300068C0F340000028F1D120786C
:1016E00000F02000202830D1A069B8B1CE480068B1
:1016F00040F48050CC490860FFF776F9054606E0D3
:10170000FFF772F9401B022801D90320ABE5C64858
:101710000068C0F340300028F2D016E0C2480068EC
:1017200020F48050C0490860FFF75EF9054606E0E6
:10173000FFF75AF9401B022801D9032093E5BA4864
:101740000068C0F340300028F2D1207800F0040097
:1017500004287DD1B548006840F48070B349086022
:10176000FFF742F9054606E0FFF73EF9401B642803
:1017700001D9032077E5AD48006800F480700028A7
:10178000F2D000BFA068012808D1A74870300068D7
:1017900040F00100A449703108602DE0A06868B9EC
:1017A000A1487030006820F001009F497031086046
:1017B0000846006820F0040008601DE0A0680528C5
:1017C0000DD199487030006840F00400964970319E
:1017D00008600846006840F0010008600CE092488C
:1017E0007030006820F001008F49703108600846B1
:1017F000006820F00400086000BFA068A0B1FFF7F7
:10180000F3F8054608E0FFF7EFF8401B41F2883196
:10181000884201D9032026E5834870300068C0F370
:1018200040000028EFD013E0FFF7DEF8054608E09F
:10183000FFF7DAF8401B41F28831884201D90320D2
:1018400011E5794870300068C0F340000028EFD1FE
:10185000606A00287DD074481030006800F03800BD
:10186000182877D0606A022875D16F48006820F088
:1018700080706D490860FFF7B7F8054606E0FFF78E
:10188000B3F8401B022801D90320ECE46648006845
:10189000C0F340600028F2D100BFD4E90A1041EA49
:1018A000001061492831096840F2F332914308433E
:1018B0005D4928310860208E401EC0F30800616B2E
:1018C000491E4FF47E4202EA41210843218F491EFE
:1018D000D20102EA014108433C21095D491E12027E
:1018E00002EA0161084350493031086000BF081F17
:1018F000006820F00100091F08604B483430006880
:101900004FF6F8718843A16C40EAC1004649343172
:10191000086045482C30006820F00C00216C08431A
:1019200041492C3108600846006820F00200616CD3
:1019300008433D492C3108600846006840F4803077
:1019400008600846006840F40030086008460068F7
:1019500002E066E038E01FE040F4802008600846BE
:10196000006840F0010008602F48006840F0807077
:101970002D490860FFF738F8054606E0FFF734F810
:10198000401B022801D903206DE427480068C0F3FA
:1019900040600028F2D044E02348006820F08070C6
:1019A00021490860FFF720F8054606E0FFF71CF81C
:1019B000401B022801D9032055E41B480068C0F3EE
:1019C00040600028F2D12CE01748283007681648FC
:1019D00030300668606A012821D007F00301A06A50
:1019E00081421CD1C7F30511E06A884217D1C6F3C2
:1019F0000801206B401E814211D1606B401EC6F36E
:101A0000462188420BD1A06B401EC6F30641884296
:101A100005D1E06B401EC6F30661884201D001206B
:101A200021E400201FE4000000440258004802584E
:101A30007047704710B50446FEF7BAFC10BD0000B1
:101A400070B50446256B2068406BC0F3C03030B1E0
:101A500005F0080018B1204601F106F826E12068DB
:101A6000406BC0F30020002876D04FF480702168CE
:101A700088632068C06B4CF23A1188432168C863C0
:101A80002068C06B20F080502168C8632068C0685F
:101A900020F040002168C86005F0080030B305F070
:101AA000020010B905F0200050B1206800F0C0FC21
:101AB00006462EB1A06B3043A0632046FFF7BAFF65
:101AC0007B4821688863012084F83400002020636B
:101AD00005F0010010B905F0020018B1204600F130
:101AE00005FAE3E0204600F0E5F8DFE005F08000CD
:101AF0000028B3D00020216888622168C86221686C
:101B0000086505F0020010B905F0200050B120680A
:101B100000F08EFC06462EB1A06B3043A063204639
:101B2000FFF788FF012084F834000020206305F0CF
:101B3000100010B905F0200010B1204600F0BAF8EE
:101B400005F0010018B905F00200002886D02046F3
:101B500000F1CCF9AAE0FFE72068406BC0F38030C9
:101B600030B105F0080018B1204600F19EFF9DE05D
:101B70002068406B00F03A0008B1012000E000202E
:101B8000002870D02068406BC0F3400018B1A06BF3
:101B900040F00200A0632068406BC0F3C00018B1A1
:101BA000A06B40F00800A0632068406BC0F34010B9
:101BB00018B1A06B40F02000A0632068406BC0F318
:101BC000001018B1A06B40F01000A06338482168E5
:101BD00088632068C06B20F49D702168C86320680A
:101BE000C06820F040002168C8602068C06A40F4E6
:101BF00000502168C8622068C06840F080002168F9
:101C0000C860206800F014FCA16B0843A063206842
:101C1000C06820F080002168C8604FF4006021682F
:101C2000886305F0080040B1012084F834000020EA
:101C300020632046FFF7FEFE38E005F0800030B359
:101C4000A06B20B32068C06B20F080502168C8636F
:101C5000002021680865012084F834002046FFF741
:101C6000E9FE23E0FFE72068406BC0F3007070B12D
:101C70004FF08050216888632068006D00F00400F8
:101C800050B905F0200018B1204600F12EF90DE002
:101C9000204600F129F909E005F0200018B120469E
:101CA000FFF7C7FE02E02046FFF7C2FE70BD00004E
:101CB0003A0F001810B50446FEF040FA10BD10B5FA
:101CC00004460CB9012010BD94F83D0028B900204D
:101CD00084F83C00204600F162F9022084F83D00BF
:101CE000211D206800F076FD012084F8480000BF27
:101CF00084F83E0001213F2001554020015541203C
:101D00000155422001554320015500BF00BF01206D
:101D100084F84400452001554620015547200155CF
:101D200000BF012084F83D000020CCE7014691F877
:101D30003D00012801D001207047022081F83D00BC
:101D400008688068074B00EA0302062A08D0B2F54B
:101D5000803F05D00868006840F001000B681860FB
:101D60000020E9E70700010070B504460D4616465D
:101D700000BF94F83C00012801D1022070BD012071
:101D800084F83C0000BF0C2E51D005DC4EB1042E6F
:101D90001ED0082E7AD133E0102E60D0142EF9D147
:101DA00075E02946206800F07BFD2068806940F0DE
:101DB0000800216888612068806920F0040021689B
:101DC000886120688069296908432168886177E013
:101DD0002946206800F0BAFD2068806940F4006060
:101DE000216888612068806920F4806021688861AA
:101DF00020688069296940EA0120216888615FE0E4
:101E00002946206800F132FF2068C06940F00800D0
:101E10002168C8612068C06920F004002168C86199
:101E20002068C069296908432168C86148E02946DB
:101E3000206800F0E5FD2068C06940F4006021687A
:101E4000C8612068C06920F480602168C86120688A
:101E5000C069296940EA01202168C86130E029464B
:101E6000206800F005FE2068406D40F00800216801
:101E700048652068406D20F00400216848652068AE
:101E8000406D296908432168486519E017E0294633
:101E9000206800F143FF2068406D40F40060216835
:101EA00048652068406D20F480602168486520689E
:101EB000406D296940EA01202168486500E000BFC3
:101EC00000BF00BF002084F83C0000BF00BF55E702
:101ED00010B50446022084F83D0000BF2068006A67
:101EE00041F21111084050B92068006A8910084079
:101EF00028B92068006820F001002168086000BF50
:101F0000204600F025F8002084F8480000BF84F83F
:101F10003E0000213F200155402001554120015540
:101F2000422001554320015500BF00BF002084F826
:101F3000440045200155462001554720015500BF6A
:101F4000002084F83D0000BF84F83C0000BF10BDB5
:101F50007047000070B504460D4615B994F83E0070
:101F600015E0042D02D13F20005D10E0082D02D1C4
:101F70004020005D0BE00C2D02D14120005D06E009
:101F8000102D02D14220005D01E04320005D0128B8
:101F900001D0012070BD1DB9022084F83E001AE076
:101FA000042D03D102213F20015514E0082D03D157
:101FB0000221402001550EE00C2D03D102214120C9
:101FC000015508E0102D03D102214220015502E005
:101FD00002214320015501222946206800F134FEE8
:101FE0001749206888420FD01649206888420BD0D4
:101FF00015492068884207D014492068884203D0D8
:1020000013492068884201D1012000E0002028B156
:102010002068406C40F40040216848642068806873
:102020000C4900EA0106062E08D0B6F5803F05D01F
:102030002068006840F00100216808600020A9E7DE
:102040000000014000040140004001400044014004
:1020500000480140070001007047000029B9084A04
:1020600012688243064B1A6004E0054A1268024374
:10207000034B1A60024A1268024B1A607047000054
:10208000C8000020001000602DE9F0410446082C33
:1020900017DA0026FF27002508E0284600F140FA5D
:1020A00010B1701CC6B22F46681CC5B2082DF4DBF7
:1020B000012E04D1A74202D10120BDE8F081002009
:1020C000FBE7082C0BD1002000F12AFA28B10120EF
:1020D00000F126FA08B10120EFE70020EDE7092C16
:1020E0000BD1012000F11CFA28B1022000F118FAEE
:1020F00008B10120E1E70020DFE70020DDE700BFB5
:10210000FEE77047F8B50446A06881688847064630
:1021100042F21700005D052872D2DFE800F00309E3
:1021200033558B0042F21900015D401E015594E0C9
:1021300042F21A00005DC0F34007002542F214018C
:102140000A5BA0683B4641F20F012144D0F804C06D
:10215000E0470546002D04DA062142F2160001553B
:102160000FE005B90DE042F21400005BA84204D173
:102170000221204602F09AF803E0092142F21600FB
:1021800001556AE042F21A00005D00F0020018B149
:102190000021204602F08AF806F0010098B942F2C8
:1021A0001A00005D00F0010020B10021204602F07D
:1021B0007DF808E00321204602F078F801F004F8E9
:1021C00021880844E06048E00020009042F20E01BF
:1021D0000A5BA0686B4604F110010768B847054622
:1021E0009DF80000012800D137E0002D09DA062112
:1021F00042F2160001550021204602F057F818E07F
:102200002AE07DB900F0E0FF0746E16800F112FF27
:1022100078B1012142F2160001550021204602F05A
:1022200045F806E042F2120005530421204602F070
:102230003DF812E0204601F087FA42F216010855F7
:102240000846005D18B9204601F19EFB03E000211D
:10225000204602F02BF800E000BF00BFF8BD2DE9DA
:10226000F04104460D462946204602F1DBF80646B9
:10227000782E06D1012142F236000155401C01554D
:1022800003E0002142F23600015542F20800005BF3
:1022900058B142F208010A5B20682B4641F207015F
:1022A00021444768B847804600BFBDE8F081000080
:1022B0002DE9F04104460E4600275548006800F01D
:1022C0000300032802D10120BDE8F08150482838DE
:1022D000006820F080604E4928390860FEF784FBD2
:1022E000054606E0FEF780FB401B022801D90320CB
:1022F000EAE7474828380068C0F3C0600028F1D1F9
:1023000000BF4348006820F47C30216840EA013077
:102310003F490860A088401EC0F30800A168491E1C
:102320004FF47E4202EA41210843A189491ED201AD
:1023300002EA01410843217C491E120202EA0161BE
:10234000084333491031086000BF3148001D006860
:1023500020F0C000616908432D49091D0860084646
:10236000006820F02000A16908432949091D086080
:102370000846006820F01000086025481430006806
:102380004FF6F8718843E16940EAC10020491431F1
:1023900008601F48001D006840F010001C49091D1E
:1023A00008602EB90846006840F40020086012E07A
:1023B000012E08D11648001D006840F48010144911
:1023C000091D086007E01248001D006840F4001075
:1023D0000F49091D08600E482838006840F08060E9
:1023E0000B4928390860FEF7FFFA054606E0FEF7BC
:1023F000FBFA401B022801D9032065E7044828386E
:102400000068C0F3C0600028F1D038465CE70000E7
:1024100028440258042001490860704718040258F3
:1024200010B50248FFF70CFB10BD0000F823002098
:1024300030B585B00446002000900C2001904FF488
:1024400080700290002003904FF480500490E06868
:1024500040F08000E060E06820F04000E060694605
:10246000204600F1E5FA084A0C21204600F104FA62
:102470000546E06820F08000E060B5F1007F00D103
:102480000025284605B030BD00E1F505024602F101
:1024900014004318186870470146D1F8800070474F
:1024A00010B5FEF061FD0448007800B910BD00F0E1
:1024B00005F800BFFAE70000C400002010B51B4873
:1024C000006840B119480068401E1849086010B9FA
:1024D000012017490870002408E004EB4401154A64
:1024E00002EB810001F086FE601CC4B2042CF4DB18
:1024F00011480068401C10490860084600686FF0E9
:102500000041884202D100200B49086001F124FEFD
:102510000A480078401CC0B2084908700A2803DB4A
:102520000020087001F060FE10BD0000B80000201F
:10253000BC000020B8230020C0000020C5000020FF
:1025400010B59CB0202114A8FDF073FD4C2101A80A
:10255000FDF06FFD00245548006820F00400534949
:10256000086000BF002000905148006820F0010082
:102570004F4908600846006800F0010000904B4891
:102580000C30006840F4404048490C31086008466F
:10259000006800F44040009000BF00BF00BF434807
:1025A0000C30006800F40050B0F5005FF7D1012056
:1025B00001900004029000200490089002200A90EC
:1025C00002210B9105210C91A0210D9102210E9168
:1025D000109104210F91002112910821119101A85D
:1025E000FEF73CFE04461CB1902132A0FDF747FFE8
:1025F0003F2014900320159000201690082017907B
:1026000040201890199000011A9040201B9004213E
:1026100014A8FEF76BFB04461CB1AB2125A0FDF707
:102620002EFF2A48006840F080002849086000BF5B
:102630002648F430006840F002002449F431086074
:102640000846006800F00200009000BF00BFFDF7E0
:10265000AFFF00BF1D48DC30006840F000501B4950
:10266000DC3108600846006800F00050009000BFB0
:1026700000BF00BF0846006840F080400860084680
:10268000006800F08040009000BF00BF00BF084617
:10269000006840F0004008600846006800F0004014
:1026A000009000BF00BF1CB010BD00000C480258D5
:1026B0002C0400582E2E5C2E2E5C557365725C62C5
:1026C00073705C6273702E63000000000044025857
:1026D0003648006840F470003449086034480068A7
:1026E00000F00F00072806D23148006820F00F00E4
:1026F000C01D2F4908602F48006840F001002D4997
:10270000086000202B49103108602A4800682A49D7
:102710000840284908602648006800F00F00072894
:1027200006D92348006820F00F00C01D204908602A
:102730000020204918310860091D0860091D086043
:102740001E481C49283108601D48091D08601D48A5
:10275000091D08600020091D08601A48091D08604D
:102760000020091D08601748091D08600020091D88
:1027700008601048006820F480200E49086000209E
:102780000C4960310860104800686FF30F00B0F129
:10279000005F02D201200D49086043F2D2000C49CB
:1027A00008604803014980390860704788ED00E0FF
:1027B00000200052004402587FEDF6EA00020202B7
:1027C0000000FF01800201010010005C088100513F
:1027D0000040005210B50268294B98420ED0B0F16B
:1027E000804F0BD0274B984208D0274B984205D0FA
:1027F000264B984202D0264B984203D122F0700219
:102800004B681A431E4B984217D0B0F1804F14D03A
:102810001C4B984211D01C4B98420ED01B4B984237
:102820000BD01B4B984208D01A4B984205D01A4B3C
:10283000984202D0194B984203D122F44072CB68DF
:102840001A4322F080034C6943EA040202608B6859
:10285000C3620B6883620A4B98420BD00C4B9842C0
:1028600008D00C4B984205D00B4B984202D00B4B32
:10287000984201D10B6903630123436110BD00003D
:10288000000001400004004000080040000C00402F
:102890000004014000400140004401400048014064
:1028A00030B5056A25F001050562026A436884694E
:1028B000204D2C4024F003040D682C4322F002022A
:1028C0008D682A431C4DA84200D10FE01B4DA84241
:1028D00000D10BE01A4DA84200D107E0194DA842E3
:1028E00000D103E0184DA84206D100BF22F0080233
:1028F000CD682A4322F004020F4DA8420BD00F4DA1
:10290000A84208D00E4DA84205D00E4DA84202D0D4
:102910000D4DA84207D123F4807323F400734D6951
:102920002B438D692B43436084614D68456302628C
:1029300030BD00008FFFFEFF000001400004014099
:1029400000400140004401400048014030B5056AA4
:1029500025F010050562026A43688469224D2C4007
:1029600024F440740D6844EA052422F020028D68A6
:1029700042EA05121D4DA84200D10FE01C4DA842AD
:1029800000D10BE01B4DA84200D100BF1A4DA84258
:1029900000D100BF194DA84207D106E022F0800205
:1029A000CD6842EA051222F04002104DA8420BD039
:1029B0000F4DA84208D00F4DA84205D00E4DA84299
:1029C00002D00E4DA84209D123F4806323F40063A2
:1029D0004D6943EA85038D6943EA85034360846159
:1029E0004D688563026230BDFF8FFFFE000001402D
:1029F0000004014000400140004401400048014003
:102A000030B5056A25F480550562036A4468C269D9
:102A100022F4E04222F440720D6842EA052223F4D7
:102A200000538D6843EA05330C4DA8420BD00C4D82
:102A3000A84208D00B4DA84205D00B4DA84202D0A9
:102A40000A4DA84204D124F480444D6944EA851417
:102A50004460C2614D680564036230BD00000140FE
:102A60000004014000400140004401400048014092
:102A700030B5056A25F480350562046A4268436D05
:102A800023F070030D682B4324F400340D8944EACD
:102A900005440D4DA8420BD00C4DA84208D00C4D5A
:102AA000A84205D00B4DA84202D00B4DA84204D13C
:102AB00022F480324D6942EA0522426043654D6846
:102AC0008565046230BD0000000001400004014043
:102AD00000400140004401400048014038B5044630
:102AE0000020C4F88800FDF77FFF054620680068D5
:102AF00000F0080008280CD16FF07E402B46002221
:102B00004FF400110090204600F0F0FA08B10320C5
:102B100038BD2068006800F0040004280CD16FF074
:102B20007E402B4600224FF480010090204600F0AA
:102B3000DDFA08B10320EBE72020C4F88000C4F8D8
:102B4000840000BF002084F87C0000BF00BFDFE7E6
:102B50002DE9F04F8BB0054600200890F949286810
:102B6000884200D100E000BF2969A868084369696C
:102B70000843E96940EA0108686E40EA08082868E5
:102B80000068F149084040EA0800296808602868A0
:102B9000406820F44050E968084329684860D5F847
:102BA0001880E8492868884202D0286A40EA080864
:102BB00028688068E549084040EA0800296888607C
:102BC0002868C06A20F00F00696A08432968C86253
:102BD00000BFDF492868884220D1DE48006800F045
:102BE0003800182811D005DC48B1082809D0102871
:102BF00011D108E020280AD028280CD109E00124AE
:102C00000BE0042409E0082407E0102405E0202458
:102C100003E0402401E0802400BFF8E0CE492868AA
:102C2000884219D1CB48006800F00700062810D26E
:102C3000DFE800F0030507090B0D00240BE0042476
:102C400009E0082407E0102405E0202403E04024E4
:102C500001E0802400BFDAE0C0492868884219D129
:102C6000BC48006800F00700062810D2DFE800F03A
:102C7000030507090B0D00240BE0042409E00824D8
:102C800007E0102405E0202403E0402401E0802434
:102C900000BFBCE0B2492868884219D1AD4800683D
:102CA00000F00700062810D2DFE800F0030507094E
:102CB0000B0D00240BE0042409E0082407E0102495
:102CC00005E0202403E0402401E0802400BF9EE0D2
:102CD000A4492868884219D19E48006800F007007E
:102CE000062810D2DFE800F0030507090B0D0024C9
:102CF0000BE0042409E0082407E0102405E0202468
:102D000003E0402401E0802400BF80E09649286869
:102D1000884220D18F48006800F03800182811D070
:102D200005DC48B1082809D0102811D108E0202876
:102D30000AD028280CD109E001240BE0042409E082
:102D4000082407E0102405E0202403E0402401E0EB
:102D5000802400BF5BE085492868884219D17D48FE
:102D6000006800F00700062810D2DFE800F0030535
:102D700007090B0D00240BE0042409E0082407E0F8
:102D8000102405E0202403E0402401E0802400BF5B
:102D90003DE077492868884219D16E48006800F004
:102DA0000700062810D2DFE800F0030507090B0D25
:102DB00000240BE0042409E0082407E0102405E0C7
:102DC000202403E0402401E0802400BF1FE05D498F
:102DD000286888421AD15F48001D006800F007008B
:102DE000062810D2DFE800F0030507090B0D0224C6
:102DF0000BE0042409E0082407E0102405E0202467
:102E000003E0402401E0802400BF00E0802400BFF4
:102E10004C49286888427DD1102C1AD006DC022C3F
:102E200009D0042C0BD0082C29D10DE0202C21D066
:102E3000402C24D120E0FDF72FFE064623E005A814
:102E4000FDF73CFE069E1EE002A8FEF05DF9039E23
:102E500019E0404854380068C0F3401040B13D4884
:102E600054380068C0F3C101424820FA01F600E07E
:102E7000404E08E0404E06E04FF4004603E00026D6
:102E80000120089000BF00BF002E10D03B49686AA7
:102E900031F81000B6FBF0F9686800EB40004845D7
:102EA00003D868680003484502D20120089009E170
:102EB0003249686A31F810C062460023304619462C
:102EC000FDF7F4F94FF480730022A0FB03AC01FB83
:102ED00003C100FB021B02220023D5F804C0604698
:102EE0001946FDF7E3F91AEB00004BF1000BCDE9B1
:102EF000000BD5F804C0624600235946FDF7D6F909
:102F00000746B7F5407F06D3B7F5801F03D2286880
:102F1000C760D7E002E001200890D3E0E869B0F58F
:102F2000004F7DD1082C39D005DC4CB3012C2CD0BE
:102F3000042C4CD12DE0102C35D0202C42D0402C2C
:102F400045D141E0000C0058F369FFCFFFF4FF11B9
:102F50000010014054440258004400400048004022
:102F6000004C004000500040001401400078004038
:102F7000007C00400090D00300093D00684C000830
:102F8000FFE7FEF743F8064625E0FEF09BFF064606
:102F900021E005A8FDF792FD069E1CE002A8FEF0C8
:102FA000B3F8039E17E04D480068C0F3401038B1F5
:102FB0004A480068C0F3C101494820FA01F600E020
:102FC000474E08E0474E06E04FF4004603E0002677
:102FD0000120089000BF00BF0EB34349686A31F872
:102FE0001000B6FBF0F04000696800EB5100B0FB48
:102FF000F1F087B2102F10D3B7F5803F0DD24FF606
:10300000F07038400990C7F34201099808430990CD
:1030100009982968C86055E002E00120089051E055
:10302000082C1AD005DC5CB1012C0DD0042C2DD15C
:103030000EE0102C16D0202C23D0402C26D122E0DC
:10304000FDF7E4FF064625E0FEF03CFF064621E0E2
:1030500005A8FDF733FD069E1CE002A8FEF054F81B
:10306000039E17E01D480068C0F3401038B11B48AC
:103070000068C0F3C1011A4820FA01F600E0184EBA
:1030800008E0184E06E04FF4004603E00026012059
:10309000089000BF00BFAEB11349686A31F8100054
:1030A000B6FBF0F0696800EB5100B0FBF1F087B2BD
:1030B000102F05D3B7F5803F02D22868C76001E022
:1030C000012008900120A5F86A00A5F868000020FA
:1030D000E866286708980BB0BDE8F08F00440258F6
:1030E0000090D00300093D00684C00082DE9F04134
:1030F00004460D4617469846069E4AE0701C002876
:1031000047D0FDF771FCA0EB0800B04200D8C6B96B
:103110002068006820F4D07021680860206880680A
:1031200020F00100216888602020C4F88000C4F8E5
:10313000840000BF002084F87C0000BF0320BDE8AD
:10314000F0812068006800F0040010B32068C069B6
:10315000C0F3C020E8B14FF4006021680862206825
:10316000006820F4D070216808602068806820F032
:103170000100216888602020C4F88000C4F8840021
:10318000C4F8880000BF002084F87C0000BF032042
:10319000D5E72068C0692840A84201D1012000E09D
:1031A0000020B842AAD00020C9E7014642F216002A
:1031B000405C08B10020704742F21700405C08B93B
:1031C0000220F8E70120F6E7014800687047000098
:1031D000C00000202DE9F05F0446894616469A4655
:1031E000DDF828B042F21700005D10B10B20BDE8F9
:1031F000F09F204601F1CCF8370906F00F08342182
:1032000041F20F000155204480F8019041F20F0077
:103210002044867041F20F002044C51CA8F1010033
:1032200009E0C200FF21914001EA0A01C200D14039
:1032300029706D1C401E0028F3DA781E09E0C200D8
:10324000FF21914001EA0B01C200D14029706D1CA1
:10325000401E0028F3DA08F10300C11942F21400FD
:103260000153204600F1E5FBC1E710B5044642F2E8
:103270001700005D08B10B2010BD204601F188F851
:10328000372141F20F000155012142F21400015390
:10329000204600F1CEFBEFE7F8B5044642F23400D9
:1032A000005D012810D0FFF78FFF074642F2200093
:1032B00001593846FFF0BEFE30B1606820B10022EF
:1032C0000D2120466368984742F21600005D90B1D8
:1032D000FFF77AFF074642F2180001593846FFF01F
:1032E000A9FE40B1606830B142F2160022180E21EA
:1032F000204663689847206881688847064606F03C
:10330000010000B1F8BD42F23600005D48B1002175
:103310002046FEF7A4FF42F23600015D401C015535
:10332000F0E742F23700005D00B1EBE70025002036
:103330000090FFF749FF074642F21C00015938464A
:10334000FFF078FEF8B142F20A010A5B20686B4692
:1033500004F108010768B8470546002D11DD42F267
:10336000060005539DF800102046FEF778FFFFF792
:103370002BFF42F20E01095B014442F21C00015195
:1033800001E005B100BF00BFBCE7F0B50246107C0C
:10339000742801D00420F0BD42F21200805A0228A5
:1033A00001D20820F7E7507C0309042B02D94FF023
:1033B000FF30F0E70020086000BF0DE0861C02F13E
:1033C0001007BC5D5E1E361AF5B2EF0004FA07F76F
:1033D0000E683E430E60401C9842EFDB0020DAE7A7
:1033E00010B50248FFF032FE10BD00007824002026
:1033F00070B504460D46012000F161FB668B00208C
:1034000000F15DFB0EB9002070BD218BA068405C0F
:103410002870012000F153FB208B401C80B22083D8
:10342000E189884201DB00202083608B401E60839D
:10343000002000F144FB0120E6E700000246088876
:10344000012809D10889012801D013207047486854
:103450000078044B187001E03120F7E700BF00202E
:10346000F4E700000C0000207CB5044642F20600A0
:10347000005B022804D213212046FFF0D6F87CBD61
:10348000607A00F04F052A4903C9CDE900018DF8A3
:1034900000506A460021204663689847064626B1D8
:1034A00031462046FFF0C1F8E9E742F23400055505
:1034B000012D04D0022D04D0032D01D102E00BE038
:1034C00000BF00BFFFF780FE42F21401095B014418
:1034D00042F22000015100BF00BF502141F207001D
:1034E000015520444570BDF80200001241F2070169
:1034F00021448870BDF8020041F207012144C870E0
:103500000A210198B0FBF1F0000A41F207012144C1
:1035100008710A210198B0FBF1F041F20701214442
:103520004871062142F2080001530020A7E700007D
:10353000904C00082DE9FF410446657A0026284694
:10354000FFF09EFC30B113212046FFF06EF804B06E
:10355000BDE8F081672141F2070001552044457024
:10356000022142F208000153284605EBD0714910B0
:10357000A5EB410111BB681EC7B28DF8047004F1C0
:103580000A00029042F20600005B801E80B2ADF895
:103590000C0001AA0621204663689847064626B11A
:1035A00031462046FFF041F8D1E742F23500075599
:1035B000022142F2080001530020C8E742F2350020
:1035C000005DA84207D100200390022203A92046F3
:1035D00001F1F3FABBE7144B0FCB8DE80F008DF828
:1035E000005004F10A00019042F20600005B801EC8
:1035F00080B2ADF808006A46052120466368984706
:10360000064626B131462046FFF00FF89FE742F20A
:103610000800005B022804D872212046FFF005F85C
:1036200095E7002093E70000B44C0008FEB504467F
:1036300000270025002642F20600005B042804D281
:1036400013212046FEF0F1FFFEBDA17A607A01EB66
:10365000002085B242F20600005BC01E87B2ADF8C2
:10366000005004F10B000190ADF808706A46072184
:10367000204663689847064626B131462046FEF04C
:10368000D4FFE1E76E2141F207000155281241F213
:1036900007012144487041F2070121448D70032144
:1036A00042F2080001530020CEE770B5044642F212
:1036B0000600005B022804D342F20600005B0228E9
:1036C00004D913212046FEF0B0FF70BD657A15B114
:1036D000802D19D100E000BFFFF776FD42F2140102
:1036E000095B014442F2200001517E2141F20700B2
:1036F0000155002041F2070121444870022142F2A5
:10370000080001530020E0E712212046FEF08DFF63
:10371000DBE770B5044642F20600005B022804D2E3
:1037200013212046FEF081FF70BD607A00F03F0556
:10373000C52141F20700015520444570022142F2A3
:10374000080001530020EFE7014642F21200405A00
:10375000012801DA08207047087C7F281BD142F23B
:103760001200405A022801DA0820F4E741F20F0063
:10377000425C487C824201D00420ECE7887C7828B7
:1037800001D10020E7E742F21A00405C00F004009B
:1037900008B30220DFE741F20F00405C40300A7CB2
:1037A000904201D00420D6E741F20F00405C11287E
:1037B00010D142F21200405A022801DA0820CAE76A
:1037C00041F20F0008444278487C824201D0052033
:1037D000C1E700BF00BF0020BDE70000024800684D
:1037E000C0F30220704700000CED00E010B5002887
:1037F00004DB0A07130E054A135406E00A07140EE9
:10380000034A00F00F031B1FD45410BD00E400E076
:1038100018ED00E002E008C8121F08C1002AFAD122
:1038200070477047002001E001C1121F002AFBD140
:1038300070472DE9F041044600251E4617468804CE
:1038400004D405E039462020B0476D1C641EF9D52C
:103850002846BDE8F08100000146042901DB002074
:10386000704701EB4100084A02EB800040780128D4
:1038700008D1002001EB4102034B03EB82025070A0
:103880000120EDE70020EBE7B823002030B585B03C
:1038900005460C46284600F09BFA012001900020C6
:1038A000029003200390009469462846FCF798FF95
:1038B00005B030BD70B586B006460C46154630469C
:1038C00000F086FA284600F059FB02200290012001
:1038D000039003200490284600F02AF805900194F4
:1038E00001A93046FCF77CFF06B070BD10B5044658
:1038F00004B910BD012C00D10224012000F1DCF834
:103900000948046000200949087000F1D5F806E074
:1039100000F07CF805480078012800D100E0F7E7C6
:1039200000BF00BFE5E70000B8000020BC00002099
:1039300070B5044600252148844201D101253AE0B2
:10394000B4F1804F01D1012535E01D48844201D1F9
:10395000022530E01B48844201D102252BE01A48A1
:10396000844201D1022526E01848844201D1032572
:1039700021E01748844201D102251CE01548844209
:1039800001D1092517E01448844201D1092512E02C
:103990001248844201D104250DE01148844201D12E
:1039A000012508E00F48844201D1012503E0C3212D
:1039B0000DA0FCF764FD284670BD0000000001402A
:1039C0000004004000080040000C004000040140DA
:1039D00000180040001C0040002000400040014052
:1039E00000440140004801402E2E5C2E2E5C557391
:1039F00065725C6273705C7372635C6273705F7437
:103A0000696D5F70776D2E6300000000704710B520
:103A1000FEF0A0FDFCF7D6FCFDF0B2FAFEF790FD3B
:103A2000FCF01CFB00F064F800F006F900F046F929
:103A300000F098F900F070F800F152FB00F002F885
:103A400010BD000008B5284828490860002088609B
:103A500000212648C1600121017400214174012127
:103A6000817402214161082181611F21C161082106
:103A7000016201214162042181620521C1620421A8
:103A800001634FF4A061416304218163C16340215C
:103A9000016404214164032181640421C164022181
:103AA00001650421416510218165C1650166002120
:103AB000416604218166FDF0BBF800200346024602
:103AC000014600900948FCF7B4FD01221146074861
:103AD000FCF779FD002202210448FCF019FD03489F
:103AE000FDF017FA08BD000000A40040E02100200E
:103AF0000748006840F080700549086000200549CB
:103B000048600846006840F0010008607047000007
:103B1000FCED00E0001000E010B5FEF005FBFEF04B
:103B2000B3FA40F614700349086008460068024979
:103B3000086010BDC800002000100060F0B595B00E
:103B40004C2102A8FCF075FA4FF0804400BF2948D0
:103B5000006840F00100274908600846006800F04E
:103B60000100019000BF00BF234884420BD02348CE
:103B7000844208D02248844205D02248844202D0A0
:103B80002148844203D121480068460802E01F48CA
:103B9000006846081E48B6FBF0F0401E87B2B4F13C
:103BA000804F02D01B48844202D14FF0FF3501E024
:103BB0004FF6FF7502940397059500210691049135
:103BC00007918021089102A8FEF779F820B14FF4FF
:103BD0000C7111A0FCF753FC022200211C20FDF007
:103BE00041FA1C20FCF743FF02A8FEF79FF815B02E
:103BF000F0BD0000E844025800000140000401400C
:103C0000004001400044014000480140D80000202D
:103C100040420F00000C00402E2E5C2E2E5C55738F
:103C200065725C6273705C7372635C6273705F7404
:103C3000696D65722E63000010B500F003F800F1A5
:103C4000EFF910BD10B500201A498872C8720873C8
:103C5000002418E06420184901EB041108810220B7
:103C6000154901EB041108710020134901EB0411FF
:103C70008872114901EB0411C8720F4901EB04115C
:103C80000873601CC4B20A2CE4DB06226421032002
:103C900000F164FA06226421042000F15FFA062292
:103CA0006421052000F15AFA06226421104600F131
:103CB00055FA10BDA82300200823002070B5002469
:103CC00016E0002004EB4401214A02EB8101486028
:103CD00004EB440102EB8101886004EB440102EB38
:103CE0008101487004EB440102F82100601CC4B259
:103CF000042CE6DB174800684FF47A72B0FBF2F14F
:103D0000481EB0F1807F00D31BE0481E4FF0E02238
:103D1000506150170F22002804DB13071D0E0E4BB5
:103D20001D5406E013071E0E0C4B00F00F052D1F4F
:103D30005E5500BF00204FF0E02290610720106127
:103D400000BF012006490870FFF7F8FE70BD0000B3
:103D5000B8230020D800002000E400E018ED00E0C7
:103D6000C400002010B5FFF077FAFEF0F9FAFEF07B
:103D70004BFD10BD10B5002404E0204600F1DCF836
:103D8000601CC4B20A2CF8DB10BD70B50446012CCF
:103D900001D105020DE0022C01D1250209E0032C1E
:103DA00002D14FF4806504E0042C01D1650200E0EB
:103DB00070BD2846FEF044FA20B100212846FEF7E7
:103DC0004DF903E001212846FEF748F900BFEFE76F
:103DD00008B55E4988420DD100BF5D49096841F0D0
:103DE00001015B4A11601146096801F0010100916F
:103DF00000BFA9E0574988420DD100BF5449096866
:103E000041F00201524A11601146096801F00201B5
:103E1000009100BF98E0504988420DD100BF4C4945
:103E2000096841F004014A4A11601146096801F02D
:103E30000401009100BF87E0484988420DD100BFCE
:103E40004349096841F00801414A11601146096877
:103E500001F00801009100BF76E0414988420DD190
:103E600000BF3B49096841F01001394A1160114611
:103E7000096801F01001009100BF65E039498842EE
:103E80000DD100BF3249096841F02001304A11606C
:103E90001146096801F02001009100BF54E0324949
:103EA00088420DD100BF2A49096841F04001284AE3
:103EB00011601146096801F04001009100BF43E024
:103EC0002A4988420DD100BF2149096841F080018B
:103ED0001F4A11601146096801F08001009100BF7E
:103EE00032E0234988420DD100BF1949096841F4E5
:103EF0008071174A11601146096801F480710091C0
:103F000000BF21E01B4988420DD100BF104909685C
:103F100041F400710E4A11601146096801F4007104
:103F2000009100BF10E0144988420DD100BF08493C
:103F3000096841F48061064A11601146096801F47C
:103F40008061009100BF00BF08BD00000000025862
:103F5000E04402580004025800080258000C0258BD
:103F6000001002580014025800180258001C025891
:103F700000200258002402580028025838B5044690
:103F8000824884420DD100BF8148006840F00100A2
:103F90007F4908600846006800F00100009000BFFB
:103FA000F2E0B4F1804F0FD100BF794808380068C3
:103FB00040F001007649083908600846006800F0C2
:103FC0000100009000BFDFE0724884420FD100BFC3
:103FD0006F480838006840F002006D4908390860F1
:103FE0000846006800F00200009000BFCCE06A487C
:103FF00084420FD100BF66480838006840F00400D2
:104000006349083908600846006800F00400009021
:1040100000BFB9E0614884420FD100BF5C48083856
:10402000006840F008005A490839086008460068EE
:1040300000F00800009000BFA6E0594884420FD16C
:1040400000BF53480838006840F010005049083954
:1040500008600846006800F01000009000BF93E080
:10406000504884420FD100BF49480838006840F0EA
:1040700020004749083908600846006800F0200021
:10408000009000BF80E0484884420DD100BF404806
:10409000006840F002003E4908600846006800F0F1
:1040A0000200009000BF6FE0404884420FD100BF83
:1040B00037480838006840F0400035490839086042
:1040C0000846006800F04000009000BF5CE03848FF
:1040D00084420FD100BF2E480838006840F08000AD
:1040E0002B49083908600846006800F080000090FD
:1040F00000BF49E02F4884420FD100BF2448083850
:10410000006840F480702249083908600846006859
:1041100000F48070009000BF36E0274884420DD143
:1041200000BF1B48006840F4803019490860084609
:10413000006800F48030009000BF25E01F488442F2
:104140000DD100BF1248006840F4003010490860EB
:104150000846006800F40030009000BF14E01848E2
:1041600084420DD100BF0A48006840F4802008490D
:1041700008600846006800F48020009000BF03E05B
:10418000802110A0FCF77BF938BD00000000014041
:10419000F04402580004004000080040000C0040B9
:1041A00000100040001400400004014000180040CE
:1041B000001C00400020004000400140004401403D
:1041C000004801402E2E5C2E2E5C557365725C6299
:1041D00073705C7372635C6273705F74696D5F703F
:1041E000776D2E630000000010B5FBF03DFFFFF778
:1041F000C1FD10BD416851B14168491E416031B9EE
:10420000012141700178012901D181684160704725
:1042100070B504460D46042C06DB124A12A11AA002
:10422000FFF026FC00BFFEE70120FFF045FC04EB99
:1042300044001D4901EB8000456004EB440001EBA4
:1042400080008560002004EB4401174A02EB8101E5
:104250004870012004EB440102F821000020FFF027
:104260002BFC70BDBB4C10082E2E5C2E2E5C5573A3
:1042700065725C6273705C7372635C6273705F74AE
:10428000696D65722E6300004572726F723A206626
:10429000696C652025732C2066756E6374696F6E7A
:1042A00020257328290D0A00B823002042F21702A6
:1042B0001154704778B5044642F224000659002094
:1042C000009069462046FFF760F8054625B142F2A6
:1042D00016000555002078BD00987082009828B916
:1042E000FF2142F2160001550020F4E70220F2E718
:1042F0002DE9FF4F87B081460D469A460020049075
:104300000021099801600020CAF8000042F206006E
:1043100030F80900032806DA13214846FEF085F933
:104320000BB0BDE8F08F28780609287800F00F045C
:104330000EB1042E04D931214846FEF076F9EFE79C
:104340000CB1042C04D931214846FEF06EF9E7E7A0
:10435000A819011942F2060030F8092009F10800F5
:104360001044814204D913214846FEF05EF9D7E794
:104370004FF0000B18E00BF101002F5C4FF000082C
:10438000CDE90278601EA0EB0B00C0B2019001984D
:10439000C200DDE9027838464146FBF7B8FF0499D0
:1043A000084304900BF1010BA345E4DB0999049841
:1043B0000860002010E0631C0344E95C731E1B1AB4
:1043C000DAB24FEAC20C01FA0CFCDAF8003043EA28
:1043D0000C03CAF80030401CB042ECDB00209FE721
:1043E00038B5044600BF69460020FFF0EDFF002805
:1043F000F9D09DF8000038BD70B504460D46E1B215
:10440000002000F107F8204670BD2DE9F0479046E6
:10441000044601FB084599460E46074606E0484615
:10442000FFF7DEFF411C06D004F8010BAC42F6D1C9
:104430004046BDE8F087E01BB0FBF6F0F9E700006E
:1044400001462F294ED01BDC24293FD00EDC192930
:1044500036D006DC10292DD011292DD014295BD19E
:104460002CE022292ED0232956D12DE0A1F12700BE
:10447000082851D2DFE800F02C2E50305032503452
:104480003D293DD009DCA1F13100082844D2DFE804
:1044900000F02B43432D2F313335842936D004DCF3
:1044A0003E292FD0832937D12EE0852930D0862987
:1044B00032D12FE0194870471948FCE70020FAE78D
:1044C0000020F8E71748F6E71748F4E70020F2E77E
:1044D0001648F0E71648EEE70020ECE70020EAE790
:1044E0001448E8E70020E6E71348E4E71348E2E76A
:1044F0001348E0E71348DEE71348DCE70020DAE77B
:104500000020D8E71148D6E70020D4E70020D2E702
:104510000F48D0E70020CEE70020CCE76934000840
:10452000F1321008953310087D3410083535000835
:10453000113510082D360008693510082536100889
:10454000293710081538100809391008AB3600084B
:10455000133700082DE9F04704460D4616461F465E
:10456000DDE9088948212046FBF063FD002084F83E
:10457000440084F82800256066602781C4F83080F4
:10458000A4F83490BDE8F0872DE9FC410446884644
:104590001646022E01DB082E01DDBDE8FC81324605
:1045A00041466846FBF7C2FEC6F108010DEB060066
:1045B000FBF03FFD9DF80000000930B1012818D044
:1045C000022848D003287CD17FE094F844000128D9
:1045D00002D1C01F206401E00020206432466946F9
:1045E000204600F081F9054615B9022084F8440000
:1045F000BAE094F84400012802D1C01F206401E011
:104600000020206432466946204600F1FBF805464A
:1046100015F1030F0CD16FF007002064002084F81F
:10462000440000231A460221204600F1ACF99BE029
:1046300085B901203B3460720820207014F83B29B2
:1046400000231946204600F19EF900F199FA4849E5
:104650000844E06388E094F84400012803D06FF038
:104660000500206480E032466946204600F0D6F816
:10467000054615F1040F06D16FF0030020640020F9
:1046800084F8440070E0FDB900F17AFA3849084432
:10469000E063208FE18E884203DB022084F844002F
:1046A00012E094F83B00401EC0B284F83B0058B9B9
:1046B000082084F83B0094F83B200023194620464C
:1046C00000E050E000F15FF94EE094F82800012886
:1046D00000D049E032466946204600F0E7F805463A
:1046E0001DBB00F14DFA2249084420629DF80000EC
:1046F00000F00F00022806D16FF007006062022070
:1047000084F828002EE09DF8000000F00F0001283A
:104710000CD1207E401C2076207E012822DD6FF007
:1047200006006062022084F828001BE09DF800006B
:1047300000F00F00B0B99DF8010018B94FF6FF70F6
:10474000208202E09DF8010020829DF8020000F026
:1047500029F907460FB1384600E0002060610020CB
:10476000207600BF00E000BF00BF00BF15E70000DB
:10477000A086010070B5044694F8280001283BD1BA
:10478000208A4FF6FF71884202D0208A002828DD57
:10479000606920B100F1F4F9E169081A21D52046D9
:1047A00000F1B7F80546CDB9208A4FF6FF7188426F
:1047B00002D0208A401E208200F1E2F91649084406
:1047C000206200F1DDF961690844E061A089618936
:1047D000884206DB002084F8280002E0022084F8EA
:1047E000280000F1CDF9216A081A05D56FF0010003
:1047F0006062022084F8280094F8440001280AD15D
:1048000000F1BEF9E16B081A05D56FF002002064D3
:10481000002084F8440070BDA08601002DE9F0411D
:1048200004460E46174694F83A00317801F00F011D
:10483000884203D06FF00300BDE8F081E08E218F45
:10484000401A85B2072D00D90725781EA84205DA3F
:104850000EA000F0BAF86FF00600EDE7228F216B92
:1048600088182A46711CFBF761FD208F2844208799
:1048700094F83A00401CC0B284F83A000F2802DDD8
:10488000002084F83A000020D6E70000436F6E73E2
:1048900065637574697665206672616D6520746FF5
:1048A0006F2073686F72742E0000000070B50546AB
:1048B0000E461446032C05DA03A000F086F86FF0CC
:1048C000060070BD0020FCE7466C6F7720636F6EBA
:1048D00074726F6C206672616D6520746F6F2073E7
:1048E000686F72742E00000070B505460C461646BF
:1048F000207800F00F0028B1207800F00F01701E22
:10490000814205DD09A000F060F86FF0060070BD7F
:10491000217801F00F02611C286BFBF707FD20785E
:1049200000F00F00E8860020F1E7000053696E6791
:104930006C652D6672616D65206C656E67746820AC
:10494000746F6F20736D616C6C2E00007CB5044633
:104950000D469DF8000020F0F00010308DF80000AA
:10496000A07A8DF8010060890F2101EA20209DF8CE
:10497000001060F303018DF8001060680168CDF845
:1049800002108088ADF8060008226946284600F02B
:104990001DF8064626B9A089801DA0810120A073BC
:1049A00030467CBD01467F2904DC4FF47A7201FB5E
:1049B00002F07047F12906DBF92904DCA1F1F000CF
:1049C00064225043F5E70020F3E77047F0B589B063
:1049D00004460D461646FEF093F824216846FBF087
:1049E00028FB0094002001900290300403900020E6
:1049F000049005900690079008902A466946104852
:104A0000FBF0DAFD00224FF400610D48FBF080FD61
:104A100000200C490870FFF0F5FA074609E0384617
:104A2000FFF074FAB0F57A7F03DB4FF0FF3009B086
:104A3000F0BD044800780028F1D00020F7E700001E
:104A4000E0210020F500002010B5044621461CA0FE
:104A5000FFF00EF8012C04D0032C14D0042C28D124
:104A60001CE000BFBFF34F8F1C48006800F4E060FB
:104A70001B490843001D19490860BFF34F8F00BF51
:104A800000BF00BFFDE717A0FEF0F2FF1848FEF0E0
:104A90002EFA18491648FEF02BFA0FE016A0FEF089
:104AA000E7FF1348FEF023FA12491148FEF020FAFE
:104AB00004E0214617A0FEF0DBFF00BF00BF10BDE1
:104AC000526573657474696E672045435520287478
:104AD0007970653A202564290A0000000CED00E099
:104AE0000000FA056B536F667452657365740A00B3
:104AF000FC000020584C00086B456E61626C6552EA
:104B000061706964506F77657253687574446F772C
:104B10006E0A0000756E6B6E6F776E20726573653E
:104B20007420747970652025640A0000014642F201
:104B300024004258012010740220704710B504462A
:104B40002046FEF792FB022010BD70B504460026F9
:104B5000254605F10C00FFF70DFE05F15400FFF7A7
:104B600009FE95F83400012801D146F001063046CF
:104B700070BD00002DE9F04786B004468A4617460E
:104B800098464FF0FF3500200590A1461D4B0FCBF6
:104B900001AE0FC609F10C000190483003900026C9
:104BA00021E0BAB201A951F8360005AB5146FFF039
:104BB0000BFE054615F1050F0CD0B5F1FF3F0BD0EC
:104BC0006DB901A800EBC600007988F80000BDF8B7
:104BD00014500BE0002505E04FF0FF3506E06FF0C4
:104BE000010503E0761C022EDBD300BF002D05DD9E
:104BF000002000E0401CA842FCDB00BF284606B0B5
:104C0000BDE8F087804C000870B5054642F22400EC
:104C1000445942F21700405DD8B9E068002000BF57
:104C200040B1E0684FF0FF30072142F216004155D5
:104C3000002070BDE068002000BF08B10220F8E746
:104C4000267C701C20743146628A2846E368FEF098
:104C500025F90120EDE7000081451008E807000074
:104C6000E0070000DF07000001000200040006006A
:104C700008000A000C001000200040008000000125
:104C80000000000000000000000000000100000023
:104C900000009600DC050000000000000A00000093
:104CA00000000000BB4B10080000000000000000E6
:104CB000BB4B1008000000000000000000000000D6
:104CC000BB4B1008000000000000000000000000C6
:104CD000BB4B100800000000000000000000FF0FA8
:104CE00000000000000000000000FF0F00000000B6
:104CF00000000000BB4B1008000000000000000096
:104D0000BB4B10089D4B1008AB310008B5420008A2
:104D10002D4B0008094C00083D4B0008AB31000842
:104D2000000000004D6573736167652073697A65E3
:104D300020746F6F206C617267652E20496E6372FC
:104D4000656173652049534F5F54505F4D41585F13
:104D50004D4553534147455F53495A4520746F2091
:104D60007365742061206C6172676572206275667C
:104D70006665720A00000000984D000800000020DF
:104D8000FC00000014380008944E0008FC000020CD
:104D90001444000024380008000000000000000057
:104DA000000000000000000000008800000000007B
:104DB00000000000000000000000000000000000F3
:104DC00000000000000000000000000000000000E3
:104DD00000000000000000000000000000000000D3
:104DE00000000000000000000000000000000000C3
:104DF00000000000000000000000000000000000B3
:104E000000000000000000000000000000000000A2
:104E10000000000000000000000000000000000092
:104E20000000000000000000000000000000000082
:104E30000000000000000000000000000000000072
:104E40000000000000000000000000000000000062
:104E50000000000000000000000000000000000052
:104E60000000000000000000100000000100000031
:104E70000090D0030090D00300000000010000006B
:104E80000000000000000000000000000000000022
:044E9000000000001E
:020000040810E2
:100000000648804706480047FEE7FEE7FEE7FEE7B2
:10001000FEE7FEE7FEE7FEE7FEE7FEE7D126000883
:1000200099020008D2B201E000F8012B491EFBD270
:1000300070470022F6E710B513460A4604461946F3
:10004000FFF7F0FF204610BD1EF0040F0CBFEFF3CA
:100050000880EFF3098002F0FFB80000002001499A
:1000600008737047E82300201CB53148007830B190
:100070002F48808818B12E48007B012800D11CBD74
:100080002B484078E8B92A48808800284DDD284868
:100090000089401C80B2264908814988884244DB97
:1000A000002040F2DC510123224ACDE9001019461C
:1000B000214804F065F800201D490881012048709E
:1000C00033E01B48407801282FD119480089401C93
:1000D00080B2174908818988884226DB1448C08885
:1000E000002812DD12484089401C80B21049488126
:1000F000C988884202DB00200D4908700C4800784E
:1001000018B900200A498880B9E700200849088109
:10011000487041F2883040F2DC510123054ACDE9B4
:1001200000101946044804F02BF800BFA7E70000B0
:10013000E8230020000C0040000002580120014983
:1001400008607047E800002010B504460CB912485A
:1001500010BD012C01D10020FAE7022C01D10F487B
:10016000F6E7032C01D10020F2E7042C01D1002096
:10017000EEE7052C01D10020EAE7062C01D1002092
:10018000E6E7072C01D10020E2E74FF48E7104A0CE
:1001900000F775F90020DBE778240020A42C00206C
:1001A0002E2E5C2E2E5C557365725C6273705C73D0
:1001B00072635C6273705F756172745F6669666FAB
:1001C0002E63000010B5024800F03CFB10BD00009B
:1001D000E021002010B5024800F034FB10BD000003
:1001E000E021002010B501464A6B0868D0F8840071
:1001F0004FF6FC74A04340EA82000C68C4F8840007
:100200000868D0F8840020F47F04088F44EA004096
:100210000C68C4F88400886B02440868D0F8880031
:100220004FF6FC74A04340EA82000C68C4F88800D2
:100230000868D0F8880020F4FE04888F44EA004063
:100240000C68C4F88800C86B02EB40020868D0F85C
:10025000A0004FF6FC74A04340EA82000C68C4F88A
:10026000A0000868D0F8A00020F4FE044020405A06
:1002700044EA00400C68C4F8A000D1E9104004FB37
:1002800000220868D0F8B0004FF6FC74A04340EAA2
:1002900082000C68C4F8B0000868D0F8B00020F400
:1002A000FE04B1F8480044EA00400C68C4F8B0000D
:1002B000D1E9124004FB00220868D0F8AC004FF6E8
:1002C000FC74A04340EA82000C68C4F8AC00D1E999
:1002D000144004FB00220868D0F8F0004FF6FC74CC
:1002E000A04340EA82000C68C4F8F0000868D0F827
:1002F000F00020F47C14B1F8580044EA00400C6887
:10030000C4F8F000886D02EB40020868D0F8C00025
:100310004FF6FC74A04340EA82000C68C4F8C000A9
:100320000868D0F8C00020F47C14B1F85C0044EAFE
:1003300000400C68C4F8C0000868D0F8C00020F085
:100340007C5491F8600044EA00600C68C4F8C00076
:100350002A4C486B04EB8000C866CC6E886B04EBBB
:1003600080040C670C6FC86B04EBC0044C67D1E9C8
:10037000100460434C6F04EB80048C67D1E91204D5
:1003800060438C6F04EB8004CC67D1E914046043B4
:10039000CC6F04EB8004802044504458886D04EBFB
:1003A000C004842044508C6EC86D6043842464581B
:1003B00004EB8004882044508C6E086E60438824CF
:1003C000645804EB80049020445040580C4CA042E8
:1003D00009D99831486840F020004860032001F8AE
:1003E0009809012010BDCB6E02E0002018601B1D93
:1003F000902040589842F8D80020F3E700AC004025
:10040000FCD3004070B50246086852F8200020F086
:1004100001000E6842F826008868082801D14025AE
:1004200000E00025486828438E683043CE6830439A
:100430000E6930434E6930438E693043CE69304394
:100440000E6A30434E6A30438E6A3043CE6A40EAC9
:100450000603086B0343486B0343886B0343114C4B
:1004600044F4801444F4001444F4E024086852F87E
:100470002000A04318430E6842F82600086BB0F530
:10048000801F07D1086828B1106820F480100E6B17
:1004900030431060086818B110684E6B304310602C
:1004A000002070BD7FFB080030B50346D1E9000590
:1004B00040EA05108D6840EA05208D8940EA05452F
:1004C000088A401E45EA0055087D801E45EA006006
:1004D0008D692843551C53F8255005F040452843A5
:1004E000551C43F82500186800F48010B0F5801FF3
:1004F0000BD1586820F47004088A401E44EA005466
:10050000586820F4700020435860002030BD00007F
:1005100030B5034693F89840012C01D0022C3ED10F
:100520001868806D084030B91868C06D40F001004F
:100530001D68E8650EE01868806D0840884206D1A5
:100540001868C06D40F002001D68E86502E00320F5
:100550001D68E86501F4007030B11868D0F8E0005B
:1005600010431D68C5F8E00001F4806030B11868E0
:10057000D0F8E40010431D68C5F8E40000BF186817
:10058000406D0B4D0D4028431D68686509480068A3
:1005900040EA9170074D286000BF002030BDD3F8BD
:1005A0009C0040F00200C3F89C000120F6E7000028
:1005B000FFFFCF3F14A800402DE9F04104460E464E
:1005C0001746706800B900E000BF94F89800022850
:1005D00032D12068D0F8C00000F07C5040B9D4F887
:1005E0009C0040F02000C4F89C000120BDE8F08190
:1005F0002068D0F8C40000F4001038B1D4F89C0092
:1006000040F40070C4F89C000120EFE72068D0F8A7
:10061000C400C0F304452B463A4631462046FFF657
:100620003BFF0120A8402168C1F8D0000120A8406C
:10063000C4F894000020D9E7D4F89C0040F00800EA
:10064000C4F89C000120D1E7704700002DE9F04379
:1006500004460D469C46002394F89880B8F1020F9A
:1006600074D1402D38D12068D0F8A00000F4FE00ED
:1006700040B9D4F89C0040F02000C4F89C00012050
:10068000BDE8F0832068D0F8A40000F07F0038B9FE
:10069000D4F89C0040F48070C4F89C000120EFE77F
:1006A0002068D0F8A400C0F3006040B12068D0F802
:1006B000A0004FF00049B9EBD07F00D101232068A2
:1006C000D0F8A400C0F305200344606C5843D4F86C
:1006D000749009EB80014BE0412D38D12068D0F8AF
:1006E000B00000F4FE0038B9D4F89C0040F02000BF
:1006F000C4F89C000120C3E72068D0F8B40000F0E3
:100700007F0038B9D4F89C0040F48070C4F89C0095
:100710000120B5E72068D0F8B400C0F3006040B114
:100720002068D0F8B0004FF00049B9EBD07F00D17D
:1007300001232068D0F8B400C0F305200344E06C26
:100740005843D4F8789009EB800111E06EE0206DF9
:10075000A84207D8D4F89C0040F02000C4F89C00C0
:1007600001208DE7606D6843D4F87C9009EB80012F
:10077000086800F080405060506820B90868C0F3F5
:100780008A40106003E0086820F06040106008684C
:1007900000F000509060086800F000401061091DF2
:1007A000088880B2D061086800F47020D0600868C2
:1007B00000F480105061086800F40010906108682F
:1007C000C0F3066010620868C00F5062091D0F4632
:1007D000002603E0B85D0CF80600761CDFF85C909C
:1007E000D06809EB10400078B042F3D8402D03D117
:1007F0002068C0F8A83017E0412D03D12068C0F868
:10080000B83011E0202D06D20120A840D4F8009085
:10081000C9F8980008E005F01F09012000FA09F066
:10082000D4F80090C9F89C00002029E7D4F89C0077
:1008300040F00800C4F89C00012021E7EC4C1008AF
:10084000704700002DE9F04F89B00446F548006874
:100850008507F448001D006805EA80752068006D72
:1008600000F470462068406D06402068006D00F07E
:100870000F072068406D07402068006D00F0F00809
:100880002068406D00EA08082068006D00F071598A
:100890002068406D00EA09092068006D00F0607A68
:1008A0002068406D00EA0A0A2068406D00F48070FC
:1008B00080B12068006D00F4807058B100BF4FF423
:1008C0008070216808650020D649086000BF204676
:1008D000FFF7B6FF2068406D00F48060D8B1206853
:1008E000006D00F48060B0B12068D0F8DC000790A3
:1008F0002068D0F8E40007990840079000BF4FF443
:100900008060216808650020C649086000BF204655
:100910000799FFF656FF65B100BFC348284021681C
:100920000865A80FBF49086000BF29462046FFF6AA
:1009300049FE66B100BFBC48304021680865B00F71
:10094000B849086000BF31462046FFF63BFF67B15B
:1009500000BFB548384021680865B80FB149086044
:1009600000BF39462046FFF61BFFB8F1000F0ED03E
:1009700000BFAD4808EA0000216808654FEA98709A
:10098000A849086000BF4146204600F0C1FA20682F
:10099000406D00F4006080B12068006D00F40060DC
:1009A00058B100BF4FF400602168086500209D49E0
:1009B000086000BF2046FFF607FF2068406D00F486
:1009C0000070D8B12068006D00F40070B0B12068EC
:1009D000D0F8D80008902068D0F8E00008990840C6
:1009E000089000BF4FF400702168086500208D4911
:1009F000086000BF2046089900F0A8FA2068406D02
:100A000000F4002080B12068006D00F4002058B18F
:100A100000BF4FF40020216808650020814908606C
:100A200000BF2046FFF6BAFE2068406D00F480301B
:100A300080B12068006D00F4803058B100BF4FF4E1
:100A400080302168086500207649086000BF204694
:100A500000F07BFA2068406D00F4802080B12068AF
:100A6000006D00F4802058B100BF4FF48020216851
:100A7000086500206B49086000BF2046FFF6A0FE15
:100A80002068406D00F4003098B12068006D00F4DB
:100A9000003070B100BF4FF40030216808650020BD
:100AA0006049086000BFD4F89C0040F08000C4F8A2
:100AB0009C00BAF1000F0ED000BF5B480AEA0000AC
:100AC000216808654FEA9A705649086000BF514690
:100AD0002046FFF6C8FDB9F1000F10D000BF524804
:100AE00009EA0000216808654FEA99704D490860DD
:100AF00000BFD4F89C0040EA0900C4F89C004B49B0
:100B0000206888427DD16068806800F0030000287A
:100B10007ED06068006A00F00F0B6068406A00EAEF
:100B20000B0B6068006A00F0300006906068406A55
:100B30000699084006906068006A00F4C07005904D
:100B40006068406A0599084005906068006A00F492
:100B5000FC4004906068406A049908400490606812
:100B6000006A00F4F02003906068406A039908402E
:100B70000390BBF1000F06D06068C0F820B0594662
:100B8000204600F0E0F9069830B1069861680862E6
:100B90002046069900F0D8F96068406A00F04000ED
:100BA000A8B16068006A00F0400080B16068C06B66
:100BB000000C02906068C06B00F03F000190402084
:100BC000616808622046DDE90121FFF6F8FD05981D
:100BD00030B105986168086220460599FFF6EEFD80
:100BE000049840B1049861680862D4F89C000499A4
:100BF0000843C4F89C00039818B103986168086220
:100C000000E005E0D4F89C0003990843C4F89C0078
:100C1000D4F89C0010B12046FFF716FD09B0BDE8DE
:100C2000F08F000010A80040FFFFCF3F00A0004061
:100C300070B594B004464C22B34901A8FFF676FB88
